{
  "_format": "hh-sol-artifact-1",
  "contractName": "MyToken",
  "sourceName": "contracts/OrchidzBuildCreatorERC1155.sol",
  "abi": [
    {
      "inputs": [
        {
          "internalType": "string",
          "name": "_name",
          "type": "string"
        },
        {
          "internalType": "string",
          "name": "_symbol",
          "type": "string"
        }
      ],
      "stateMutability": "nonpayable",
      "type": "constructor"
    },
    {
      "anonymous": false,
      "inputs": [
        {
          "indexed": true,
          "internalType": "address",
          "name": "account",
          "type": "address"
        },
        {
          "indexed": true,
          "internalType": "address",
          "name": "operator",
          "type": "address"
        },
        {
          "indexed": false,
          "internalType": "bool",
          "name": "approved",
          "type": "bool"
        }
      ],
      "name": "ApprovalForAll",
      "type": "event"
    },
    {
      "anonymous": false,
      "inputs": [
        {
          "indexed": true,
          "internalType": "address",
          "name": "previousOwner",
          "type": "address"
        },
        {
          "indexed": true,
          "internalType": "address",
          "name": "newOwner",
          "type": "address"
        }
      ],
      "name": "OwnershipTransferred",
      "type": "event"
    },
    {
      "anonymous": false,
      "inputs": [
        {
          "indexed": true,
          "internalType": "address",
          "name": "operator",
          "type": "address"
        },
        {
          "indexed": true,
          "internalType": "address",
          "name": "from",
          "type": "address"
        },
        {
          "indexed": true,
          "internalType": "address",
          "name": "to",
          "type": "address"
        },
        {
          "indexed": false,
          "internalType": "uint256[]",
          "name": "ids",
          "type": "uint256[]"
        },
        {
          "indexed": false,
          "internalType": "uint256[]",
          "name": "values",
          "type": "uint256[]"
        }
      ],
      "name": "TransferBatch",
      "type": "event"
    },
    {
      "anonymous": false,
      "inputs": [
        {
          "indexed": true,
          "internalType": "address",
          "name": "operator",
          "type": "address"
        },
        {
          "indexed": true,
          "internalType": "address",
          "name": "from",
          "type": "address"
        },
        {
          "indexed": true,
          "internalType": "address",
          "name": "to",
          "type": "address"
        },
        {
          "indexed": false,
          "internalType": "uint256",
          "name": "id",
          "type": "uint256"
        },
        {
          "indexed": false,
          "internalType": "uint256",
          "name": "value",
          "type": "uint256"
        }
      ],
      "name": "TransferSingle",
      "type": "event"
    },
    {
      "anonymous": false,
      "inputs": [
        {
          "indexed": false,
          "internalType": "string",
          "name": "value",
          "type": "string"
        },
        {
          "indexed": true,
          "internalType": "uint256",
          "name": "id",
          "type": "uint256"
        }
      ],
      "name": "URI",
      "type": "event"
    },
    {
      "inputs": [
        {
          "internalType": "address",
          "name": "account",
          "type": "address"
        },
        {
          "internalType": "uint256",
          "name": "id",
          "type": "uint256"
        }
      ],
      "name": "balanceOf",
      "outputs": [
        {
          "internalType": "uint256",
          "name": "",
          "type": "uint256"
        }
      ],
      "stateMutability": "view",
      "type": "function"
    },
    {
      "inputs": [
        {
          "internalType": "address[]",
          "name": "accounts",
          "type": "address[]"
        },
        {
          "internalType": "uint256[]",
          "name": "ids",
          "type": "uint256[]"
        }
      ],
      "name": "balanceOfBatch",
      "outputs": [
        {
          "internalType": "uint256[]",
          "name": "",
          "type": "uint256[]"
        }
      ],
      "stateMutability": "view",
      "type": "function"
    },
    {
      "inputs": [
        {
          "internalType": "address",
          "name": "account",
          "type": "address"
        },
        {
          "internalType": "address",
          "name": "operator",
          "type": "address"
        }
      ],
      "name": "isApprovedForAll",
      "outputs": [
        {
          "internalType": "bool",
          "name": "",
          "type": "bool"
        }
      ],
      "stateMutability": "view",
      "type": "function"
    },
    {
      "inputs": [
        {
          "internalType": "uint256",
          "name": "",
          "type": "uint256"
        }
      ],
      "name": "isTokenAllowedTokens",
      "outputs": [
        {
          "internalType": "bool",
          "name": "",
          "type": "bool"
        }
      ],
      "stateMutability": "view",
      "type": "function"
    },
    {
      "inputs": [
        {
          "internalType": "address",
          "name": "account",
          "type": "address"
        },
        {
          "internalType": "uint256",
          "name": "id",
          "type": "uint256"
        },
        {
          "internalType": "uint256",
          "name": "amount",
          "type": "uint256"
        },
        {
          "internalType": "bytes",
          "name": "data",
          "type": "bytes"
        }
      ],
      "name": "mint",
      "outputs": [],
      "stateMutability": "nonpayable",
      "type": "function"
    },
    {
      "inputs": [
        {
          "internalType": "address",
          "name": "to",
          "type": "address"
        },
        {
          "internalType": "uint256[]",
          "name": "ids",
          "type": "uint256[]"
        },
        {
          "internalType": "uint256[]",
          "name": "amounts",
          "type": "uint256[]"
        },
        {
          "internalType": "bytes",
          "name": "data",
          "type": "bytes"
        }
      ],
      "name": "mintBatch",
      "outputs": [],
      "stateMutability": "nonpayable",
      "type": "function"
    },
    {
      "inputs": [],
      "name": "name",
      "outputs": [
        {
          "internalType": "string",
          "name": "",
          "type": "string"
        }
      ],
      "stateMutability": "view",
      "type": "function"
    },
    {
      "inputs": [],
      "name": "owner",
      "outputs": [
        {
          "internalType": "address",
          "name": "",
          "type": "address"
        }
      ],
      "stateMutability": "view",
      "type": "function"
    },
    {
      "inputs": [],
      "name": "renounceOwnership",
      "outputs": [],
      "stateMutability": "nonpayable",
      "type": "function"
    },
    {
      "inputs": [
        {
          "internalType": "address",
          "name": "from",
          "type": "address"
        },
        {
          "internalType": "address",
          "name": "to",
          "type": "address"
        },
        {
          "internalType": "uint256[]",
          "name": "ids",
          "type": "uint256[]"
        },
        {
          "internalType": "uint256[]",
          "name": "amounts",
          "type": "uint256[]"
        },
        {
          "internalType": "bytes",
          "name": "data",
          "type": "bytes"
        }
      ],
      "name": "safeBatchTransferFrom",
      "outputs": [],
      "stateMutability": "nonpayable",
      "type": "function"
    },
    {
      "inputs": [
        {
          "internalType": "address",
          "name": "from",
          "type": "address"
        },
        {
          "internalType": "address",
          "name": "to",
          "type": "address"
        },
        {
          "internalType": "uint256",
          "name": "id",
          "type": "uint256"
        },
        {
          "internalType": "uint256",
          "name": "amount",
          "type": "uint256"
        },
        {
          "internalType": "bytes",
          "name": "data",
          "type": "bytes"
        }
      ],
      "name": "safeTransferFrom",
      "outputs": [],
      "stateMutability": "nonpayable",
      "type": "function"
    },
    {
      "inputs": [
        {
          "internalType": "address",
          "name": "operator",
          "type": "address"
        },
        {
          "internalType": "bool",
          "name": "approved",
          "type": "bool"
        }
      ],
      "name": "setApprovalForAll",
      "outputs": [],
      "stateMutability": "nonpayable",
      "type": "function"
    },
    {
      "inputs": [
        {
          "internalType": "string",
          "name": "newuri",
          "type": "string"
        }
      ],
      "name": "setURI",
      "outputs": [],
      "stateMutability": "nonpayable",
      "type": "function"
    },
    {
      "inputs": [
        {
          "internalType": "bytes4",
          "name": "interfaceId",
          "type": "bytes4"
        }
      ],
      "name": "supportsInterface",
      "outputs": [
        {
          "internalType": "bool",
          "name": "",
          "type": "bool"
        }
      ],
      "stateMutability": "view",
      "type": "function"
    },
    {
      "inputs": [],
      "name": "symbol",
      "outputs": [
        {
          "internalType": "string",
          "name": "",
          "type": "string"
        }
      ],
      "stateMutability": "view",
      "type": "function"
    },
    {
      "inputs": [
        {
          "internalType": "address",
          "name": "newOwner",
          "type": "address"
        }
      ],
      "name": "transferOwnership",
      "outputs": [],
      "stateMutability": "nonpayable",
      "type": "function"
    },
    {
      "inputs": [
        {
          "internalType": "uint256",
          "name": "",
          "type": "uint256"
        }
      ],
      "name": "uri",
      "outputs": [
        {
          "internalType": "string",
          "name": "",
          "type": "string"
        }
      ],
      "stateMutability": "view",
      "type": "function"
    }
  ],
  "bytecode": "0x608060405260405180602001604052806000815250600490816200002491906200046a565b5060405180602001604052806000815250600590816200004591906200046a565b503480156200005357600080fd5b5060405162003bbe38038062003bbe8339818101604052810190620000799190620006b5565b6040518060400160405280601681526020017f697066733a2f2f5f6369645f2f7b69647d2e6a736f6e00000000000000000000815250620000c0816200010d60201b60201c565b50620000e1620000d56200012260201b60201c565b6200012a60201b60201c565b8160049081620000f291906200046a565b5080600590816200010491906200046a565b5050506200073a565b80600290816200011e91906200046a565b5050565b600033905090565b6000600360009054906101000a900473ffffffffffffffffffffffffffffffffffffffff16905081600360006101000a81548173ffffffffffffffffffffffffffffffffffffffff021916908373ffffffffffffffffffffffffffffffffffffffff1602179055508173ffffffffffffffffffffffffffffffffffffffff168173ffffffffffffffffffffffffffffffffffffffff167f8be0079c531659141344cd1fd0a4f28419497f9722a3daafe3b4186f6b6457e060405160405180910390a35050565b600081519050919050565b7f4e487b7100000000000000000000000000000000000000000000000000000000600052604160045260246000fd5b7f4e487b7100000000000000000000000000000000000000000000000000000000600052602260045260246000fd5b600060028204905060018216806200027257607f821691505b6020821081036200028857620002876200022a565b5b50919050565b60008190508160005260206000209050919050565b60006020601f8301049050919050565b600082821b905092915050565b600060088302620002f27fffffffffffffffffffffffffffffffffffffffffffffffffffffffffffffffff82620002b3565b620002fe8683620002b3565b95508019841693508086168417925050509392505050565b6000819050919050565b6000819050919050565b60006200034b620003456200033f8462000316565b62000320565b62000316565b9050919050565b6000819050919050565b62000367836200032a565b6200037f620003768262000352565b848454620002c0565b825550505050565b600090565b6200039662000387565b620003a38184846200035c565b505050565b5b81811015620003cb57620003bf6000826200038c565b600181019050620003a9565b5050565b601f8211156200041a57620003e4816200028e565b620003ef84620002a3565b81016020851015620003ff578190505b620004176200040e85620002a3565b830182620003a8565b50505b505050565b600082821c905092915050565b60006200043f600019846008026200041f565b1980831691505092915050565b60006200045a83836200042c565b9150826002028217905092915050565b6200047582620001f0565b67ffffffffffffffff811115620004915762000490620001fb565b5b6200049d825462000259565b620004aa828285620003cf565b600060209050601f831160018114620004e25760008415620004cd578287015190505b620004d985826200044c565b86555062000549565b601f198416620004f2866200028e565b60005b828110156200051c57848901518255600182019150602085019450602081019050620004f5565b868310156200053c578489015162000538601f8916826200042c565b8355505b6001600288020188555050505b505050505050565b6000604051905090565b600080fd5b600080fd5b600080fd5b600080fd5b6000601f19601f8301169050919050565b6200058b826200056f565b810181811067ffffffffffffffff82111715620005ad57620005ac620001fb565b5b80604052505050565b6000620005c262000551565b9050620005d0828262000580565b919050565b600067ffffffffffffffff821115620005f357620005f2620001fb565b5b620005fe826200056f565b9050602081019050919050565b60005b838110156200062b5780820151818401526020810190506200060e565b60008484015250505050565b60006200064e6200064884620005d5565b620005b6565b9050828152602081018484840111156200066d576200066c6200056a565b5b6200067a8482856200060b565b509392505050565b600082601f8301126200069a576200069962000565565b5b8151620006ac84826020860162000637565b91505092915050565b60008060408385031215620006cf57620006ce6200055b565b5b600083015167ffffffffffffffff811115620006f057620006ef62000560565b5b620006fe8582860162000682565b925050602083015167ffffffffffffffff81111562000722576200072162000560565b5b620007308582860162000682565b9150509250929050565b613474806200074a6000396000f3fe608060405234801561001057600080fd5b506004361061010a5760003560e01c8063715018a6116100a257806395d89b411161007157806395d89b41146102b5578063a22cb465146102d3578063e985e9c5146102ef578063f242432a1461031f578063f2fde38b1461033b5761010a565b8063715018a614610241578063731133e91461024b57806384b47216146102675780638da5cb5b146102975761010a565b80630e89341c116100de5780630e89341c146101a95780631f7fdffa146101d95780632eb2c2d6146101f55780634e1273f4146102115761010a565b8062fdd58e1461010f57806301ffc9a71461013f57806302fe53051461016f57806306fdde031461018b575b600080fd5b61012960048036038101906101249190611caf565b610357565b6040516101369190611cfe565b60405180910390f35b61015960048036038101906101549190611d71565b61041f565b6040516101669190611db9565b60405180910390f35b61018960048036038101906101849190611f1a565b610501565b005b610193610515565b6040516101a09190611fe2565b60405180910390f35b6101c360048036038101906101be9190612004565b6105a3565b6040516101d09190611fe2565b60405180910390f35b6101f360048036038101906101ee919061219a565b610637565b005b61020f600480360381019061020a9190612255565b610651565b005b61022b600480360381019061022691906123e7565b6106f2565b604051610238919061251d565b60405180910390f35b61024961080b565b005b6102656004803603810190610260919061253f565b61081f565b005b610281600480360381019061027c9190612004565b610839565b60405161028e9190611db9565b60405180910390f35b61029f610859565b6040516102ac91906125d1565b60405180910390f35b6102bd610883565b6040516102ca9190611fe2565b60405180910390f35b6102ed60048036038101906102e89190612618565b610911565b005b61030960048036038101906103049190612658565b610927565b6040516103169190611db9565b60405180910390f35b61033960048036038101906103349190612698565b6109bb565b005b6103556004803603810190610350919061272f565b610a5c565b005b60008073ffffffffffffffffffffffffffffffffffffffff168373ffffffffffffffffffffffffffffffffffffffff16036103c7576040517f08c379a00000000000000000000000000000000000000000000000000000000081526004016103be906127ce565b60405180910390fd5b60008083815260200190815260200160002060008473ffffffffffffffffffffffffffffffffffffffff1673ffffffffffffffffffffffffffffffffffffffff16815260200190815260200160002054905092915050565b60007fd9b67a26000000000000000000000000000000000000000000000000000000007bffffffffffffffffffffffffffffffffffffffffffffffffffffffff1916827bffffffffffffffffffffffffffffffffffffffffffffffffffffffff191614806104ea57507f0e89341c000000000000000000000000000000000000000000000000000000007bffffffffffffffffffffffffffffffffffffffffffffffffffffffff1916827bffffffffffffffffffffffffffffffffffffffffffffffffffffffff1916145b806104fa57506104f982610adf565b5b9050919050565b610509610b49565b61051281610bc7565b50565b600480546105229061281d565b80601f016020809104026020016040519081016040528092919081815260200182805461054e9061281d565b801561059b5780601f106105705761010080835404028352916020019161059b565b820191906000526020600020905b81548152906001019060200180831161057e57829003601f168201915b505050505081565b6060600280546105b29061281d565b80601f01602080910402602001604051908101604052809291908181526020018280546105de9061281d565b801561062b5780601f106106005761010080835404028352916020019161062b565b820191906000526020600020905b81548152906001019060200180831161060e57829003601f168201915b50505050509050919050565b61063f610b49565b61064b84848484610bda565b50505050565b610659610e06565b73ffffffffffffffffffffffffffffffffffffffff168573ffffffffffffffffffffffffffffffffffffffff16148061069f575061069e85610699610e06565b610927565b5b6106de576040517f08c379a00000000000000000000000000000000000000000000000000000000081526004016106d5906128c0565b60405180910390fd5b6106eb8585858585610e0e565b5050505050565b60608151835114610738576040517f08c379a000000000000000000000000000000000000000000000000000000000815260040161072f90612952565b60405180910390fd5b6000835167ffffffffffffffff81111561075557610754611def565b5b6040519080825280602002602001820160405280156107835781602001602082028036833780820191505090505b50905060005b8451811015610800576107d08582815181106107a8576107a7612972565b5b60200260200101518583815181106107c3576107c2612972565b5b6020026020010151610357565b8282815181106107e3576107e2612972565b5b602002602001018181525050806107f9906129d0565b9050610789565b508091505092915050565b610813610b49565b61081d600061112f565b565b610827610b49565b610833848484846111f5565b50505050565b60066020528060005260406000206000915054906101000a900460ff1681565b6000600360009054906101000a900473ffffffffffffffffffffffffffffffffffffffff16905090565b600580546108909061281d565b80601f01602080910402602001604051908101604052809291908181526020018280546108bc9061281d565b80156109095780601f106108de57610100808354040283529160200191610909565b820191906000526020600020905b8154815290600101906020018083116108ec57829003601f168201915b505050505081565b61092361091c610e06565b83836113a5565b5050565b6000600160008473ffffffffffffffffffffffffffffffffffffffff1673ffffffffffffffffffffffffffffffffffffffff16815260200190815260200160002060008373ffffffffffffffffffffffffffffffffffffffff1673ffffffffffffffffffffffffffffffffffffffff16815260200190815260200160002060009054906101000a900460ff16905092915050565b6109c3610e06565b73ffffffffffffffffffffffffffffffffffffffff168573ffffffffffffffffffffffffffffffffffffffff161480610a095750610a0885610a03610e06565b610927565b5b610a48576040517f08c379a0000000000000000000000000000000000000000000000000000000008152600401610a3f906128c0565b60405180910390fd5b610a558585858585611511565b5050505050565b610a64610b49565b600073ffffffffffffffffffffffffffffffffffffffff168173ffffffffffffffffffffffffffffffffffffffff1603610ad3576040517f08c379a0000000000000000000000000000000000000000000000000000000008152600401610aca90612a8a565b60405180910390fd5b610adc8161112f565b50565b60007f01ffc9a7000000000000000000000000000000000000000000000000000000007bffffffffffffffffffffffffffffffffffffffffffffffffffffffff1916827bffffffffffffffffffffffffffffffffffffffffffffffffffffffff1916149050919050565b610b51610e06565b73ffffffffffffffffffffffffffffffffffffffff16610b6f610859565b73ffffffffffffffffffffffffffffffffffffffff1614610bc5576040517f08c379a0000000000000000000000000000000000000000000000000000000008152600401610bbc90612af6565b60405180910390fd5b565b8060029081610bd69190612cc2565b5050565b600073ffffffffffffffffffffffffffffffffffffffff168473ffffffffffffffffffffffffffffffffffffffff1603610c49576040517f08c379a0000000000000000000000000000000000000000000000000000000008152600401610c4090612e06565b60405180910390fd5b8151835114610c8d576040517f08c379a0000000000000000000000000000000000000000000000000000000008152600401610c8490612e98565b60405180910390fd5b6000610c97610e06565b9050610ca8816000878787876117ac565b60005b8451811015610d6157838181518110610cc757610cc6612972565b5b6020026020010151600080878481518110610ce557610ce4612972565b5b6020026020010151815260200190815260200160002060008873ffffffffffffffffffffffffffffffffffffffff1673ffffffffffffffffffffffffffffffffffffffff1681526020019081526020016000206000828254610d479190612eb8565b925050819055508080610d59906129d0565b915050610cab565b508473ffffffffffffffffffffffffffffffffffffffff16600073ffffffffffffffffffffffffffffffffffffffff168273ffffffffffffffffffffffffffffffffffffffff167f4a39dc06d4c0dbc64b70af90fd698a233a518aa5d07e595d983b8c0526c8f7fb8787604051610dd9929190612eec565b60405180910390a4610df0816000878787876117b4565b610dff816000878787876117bc565b5050505050565b600033905090565b8151835114610e52576040517f08c379a0000000000000000000000000000000000000000000000000000000008152600401610e4990612e98565b60405180910390fd5b600073ffffffffffffffffffffffffffffffffffffffff168473ffffffffffffffffffffffffffffffffffffffff1603610ec1576040517f08c379a0000000000000000000000000000000000000000000000000000000008152600401610eb890612f95565b60405180910390fd5b6000610ecb610e06565b9050610edb8187878787876117ac565b60005b845181101561108c576000858281518110610efc57610efb612972565b5b602002602001015190506000858381518110610f1b57610f1a612972565b5b60200260200101519050600080600084815260200190815260200160002060008b73ffffffffffffffffffffffffffffffffffffffff1673ffffffffffffffffffffffffffffffffffffffff16815260200190815260200160002054905081811015610fbc576040517f08c379a0000000000000000000000000000000000000000000000000000000008152600401610fb390613027565b60405180910390fd5b81810360008085815260200190815260200160002060008c73ffffffffffffffffffffffffffffffffffffffff1673ffffffffffffffffffffffffffffffffffffffff168152602001908152602001600020819055508160008085815260200190815260200160002060008b73ffffffffffffffffffffffffffffffffffffffff1673ffffffffffffffffffffffffffffffffffffffff16815260200190815260200160002060008282546110719190612eb8565b9250508190555050505080611085906129d0565b9050610ede565b508473ffffffffffffffffffffffffffffffffffffffff168673ffffffffffffffffffffffffffffffffffffffff168273ffffffffffffffffffffffffffffffffffffffff167f4a39dc06d4c0dbc64b70af90fd698a233a518aa5d07e595d983b8c0526c8f7fb8787604051611103929190612eec565b60405180910390a46111198187878787876117b4565b6111278187878787876117bc565b505050505050565b6000600360009054906101000a900473ffffffffffffffffffffffffffffffffffffffff16905081600360006101000a81548173ffffffffffffffffffffffffffffffffffffffff021916908373ffffffffffffffffffffffffffffffffffffffff1602179055508173ffffffffffffffffffffffffffffffffffffffff168173ffffffffffffffffffffffffffffffffffffffff167f8be0079c531659141344cd1fd0a4f28419497f9722a3daafe3b4186f6b6457e060405160405180910390a35050565b600073ffffffffffffffffffffffffffffffffffffffff168473ffffffffffffffffffffffffffffffffffffffff1603611264576040517f08c379a000000000000000000000000000000000000000000000000000000000815260040161125b90612e06565b60405180910390fd5b600061126e610e06565b9050600061127b85611993565b9050600061128885611993565b9050611299836000898585896117ac565b8460008088815260200190815260200160002060008973ffffffffffffffffffffffffffffffffffffffff1673ffffffffffffffffffffffffffffffffffffffff16815260200190815260200160002060008282546112f89190612eb8565b925050819055508673ffffffffffffffffffffffffffffffffffffffff16600073ffffffffffffffffffffffffffffffffffffffff168473ffffffffffffffffffffffffffffffffffffffff167fc3d58168c5ae7397731d063d5bbf3d657854427343f4c083240f7aacaa2d0f628989604051611376929190613047565b60405180910390a461138d836000898585896117b4565b61139c83600089898989611a0d565b50505050505050565b8173ffffffffffffffffffffffffffffffffffffffff168373ffffffffffffffffffffffffffffffffffffffff1603611413576040517f08c379a000000000000000000000000000000000000000000000000000000000815260040161140a906130e2565b60405180910390fd5b80600160008573ffffffffffffffffffffffffffffffffffffffff1673ffffffffffffffffffffffffffffffffffffffff16815260200190815260200160002060008473ffffffffffffffffffffffffffffffffffffffff1673ffffffffffffffffffffffffffffffffffffffff16815260200190815260200160002060006101000a81548160ff0219169083151502179055508173ffffffffffffffffffffffffffffffffffffffff168373ffffffffffffffffffffffffffffffffffffffff167f17307eab39ab6107e8899845ad3d59bd9653f200f220920489ca2b5937696c31836040516115049190611db9565b60405180910390a3505050565b600073ffffffffffffffffffffffffffffffffffffffff168473ffffffffffffffffffffffffffffffffffffffff1603611580576040517f08c379a000000000000000000000000000000000000000000000000000000000815260040161157790612f95565b60405180910390fd5b600061158a610e06565b9050600061159785611993565b905060006115a485611993565b90506115b48389898585896117ac565b600080600088815260200190815260200160002060008a73ffffffffffffffffffffffffffffffffffffffff1673ffffffffffffffffffffffffffffffffffffffff1681526020019081526020016000205490508581101561164b576040517f08c379a000000000000000000000000000000000000000000000000000000000815260040161164290613027565b60405180910390fd5b85810360008089815260200190815260200160002060008b73ffffffffffffffffffffffffffffffffffffffff1673ffffffffffffffffffffffffffffffffffffffff168152602001908152602001600020819055508560008089815260200190815260200160002060008a73ffffffffffffffffffffffffffffffffffffffff1673ffffffffffffffffffffffffffffffffffffffff16815260200190815260200160002060008282546117009190612eb8565b925050819055508773ffffffffffffffffffffffffffffffffffffffff168973ffffffffffffffffffffffffffffffffffffffff168573ffffffffffffffffffffffffffffffffffffffff167fc3d58168c5ae7397731d063d5bbf3d657854427343f4c083240f7aacaa2d0f628a8a60405161177d929190613047565b60405180910390a4611793848a8a86868a6117b4565b6117a1848a8a8a8a8a611a0d565b505050505050505050565b505050505050565b505050505050565b6117db8473ffffffffffffffffffffffffffffffffffffffff16611be4565b1561198b578373ffffffffffffffffffffffffffffffffffffffff1663bc197c8187878686866040518663ffffffff1660e01b8152600401611821959493929190613157565b6020604051808303816000875af192505050801561185d57506040513d601f19601f8201168201806040525081019061185a91906131d4565b60015b6119025761186961320e565b806308c379a0036118c5575061187d613230565b8061188857506118c7565b806040517f08c379a00000000000000000000000000000000000000000000000000000000081526004016118bc9190611fe2565b60405180910390fd5b505b6040517f08c379a00000000000000000000000000000000000000000000000000000000081526004016118f990613332565b60405180910390fd5b63bc197c8160e01b7bffffffffffffffffffffffffffffffffffffffffffffffffffffffff1916817bffffffffffffffffffffffffffffffffffffffffffffffffffffffff191614611989576040517f08c379a0000000000000000000000000000000000000000000000000000000008152600401611980906133c4565b60405180910390fd5b505b505050505050565b60606000600167ffffffffffffffff8111156119b2576119b1611def565b5b6040519080825280602002602001820160405280156119e05781602001602082028036833780820191505090505b50905082816000815181106119f8576119f7612972565b5b60200260200101818152505080915050919050565b611a2c8473ffffffffffffffffffffffffffffffffffffffff16611be4565b15611bdc578373ffffffffffffffffffffffffffffffffffffffff1663f23a6e6187878686866040518663ffffffff1660e01b8152600401611a729594939291906133e4565b6020604051808303816000875af1925050508015611aae57506040513d601f19601f82011682018060405250810190611aab91906131d4565b60015b611b5357611aba61320e565b806308c379a003611b165750611ace613230565b80611ad95750611b18565b806040517f08c379a0000000000000000000000000000000000000000000000000000000008152600401611b0d9190611fe2565b60405180910390fd5b505b6040517f08c379a0000000000000000000000000000000000000000000000000000000008152600401611b4a90613332565b60405180910390fd5b63f23a6e6160e01b7bffffffffffffffffffffffffffffffffffffffffffffffffffffffff1916817bffffffffffffffffffffffffffffffffffffffffffffffffffffffff191614611bda576040517f08c379a0000000000000000000000000000000000000000000000000000000008152600401611bd1906133c4565b60405180910390fd5b505b505050505050565b6000808273ffffffffffffffffffffffffffffffffffffffff163b119050919050565b6000604051905090565b600080fd5b600080fd5b600073ffffffffffffffffffffffffffffffffffffffff82169050919050565b6000611c4682611c1b565b9050919050565b611c5681611c3b565b8114611c6157600080fd5b50565b600081359050611c7381611c4d565b92915050565b6000819050919050565b611c8c81611c79565b8114611c9757600080fd5b50565b600081359050611ca981611c83565b92915050565b60008060408385031215611cc657611cc5611c11565b5b6000611cd485828601611c64565b9250506020611ce585828601611c9a565b9150509250929050565b611cf881611c79565b82525050565b6000602082019050611d136000830184611cef565b92915050565b60007fffffffff0000000000000000000000000000000000000000000000000000000082169050919050565b611d4e81611d19565b8114611d5957600080fd5b50565b600081359050611d6b81611d45565b92915050565b600060208284031215611d8757611d86611c11565b5b6000611d9584828501611d5c565b91505092915050565b60008115159050919050565b611db381611d9e565b82525050565b6000602082019050611dce6000830184611daa565b92915050565b600080fd5b600080fd5b6000601f19601f8301169050919050565b7f4e487b7100000000000000000000000000000000000000000000000000000000600052604160045260246000fd5b611e2782611dde565b810181811067ffffffffffffffff82111715611e4657611e45611def565b5b80604052505050565b6000611e59611c07565b9050611e658282611e1e565b919050565b600067ffffffffffffffff821115611e8557611e84611def565b5b611e8e82611dde565b9050602081019050919050565b82818337600083830152505050565b6000611ebd611eb884611e6a565b611e4f565b905082815260208101848484011115611ed957611ed8611dd9565b5b611ee4848285611e9b565b509392505050565b600082601f830112611f0157611f00611dd4565b5b8135611f11848260208601611eaa565b91505092915050565b600060208284031215611f3057611f2f611c11565b5b600082013567ffffffffffffffff811115611f4e57611f4d611c16565b5b611f5a84828501611eec565b91505092915050565b600081519050919050565b600082825260208201905092915050565b60005b83811015611f9d578082015181840152602081019050611f82565b60008484015250505050565b6000611fb482611f63565b611fbe8185611f6e565b9350611fce818560208601611f7f565b611fd781611dde565b840191505092915050565b60006020820190508181036000830152611ffc8184611fa9565b905092915050565b60006020828403121561201a57612019611c11565b5b600061202884828501611c9a565b91505092915050565b600067ffffffffffffffff82111561204c5761204b611def565b5b602082029050602081019050919050565b600080fd5b600061207561207084612031565b611e4f565b905080838252602082019050602084028301858111156120985761209761205d565b5b835b818110156120c157806120ad8882611c9a565b84526020840193505060208101905061209a565b5050509392505050565b600082601f8301126120e0576120df611dd4565b5b81356120f0848260208601612062565b91505092915050565b600067ffffffffffffffff82111561211457612113611def565b5b61211d82611dde565b9050602081019050919050565b600061213d612138846120f9565b611e4f565b90508281526020810184848401111561215957612158611dd9565b5b612164848285611e9b565b509392505050565b600082601f83011261218157612180611dd4565b5b813561219184826020860161212a565b91505092915050565b600080600080608085870312156121b4576121b3611c11565b5b60006121c287828801611c64565b945050602085013567ffffffffffffffff8111156121e3576121e2611c16565b5b6121ef878288016120cb565b935050604085013567ffffffffffffffff8111156122105761220f611c16565b5b61221c878288016120cb565b925050606085013567ffffffffffffffff81111561223d5761223c611c16565b5b6122498782880161216c565b91505092959194509250565b600080600080600060a0868803121561227157612270611c11565b5b600061227f88828901611c64565b955050602061229088828901611c64565b945050604086013567ffffffffffffffff8111156122b1576122b0611c16565b5b6122bd888289016120cb565b935050606086013567ffffffffffffffff8111156122de576122dd611c16565b5b6122ea888289016120cb565b925050608086013567ffffffffffffffff81111561230b5761230a611c16565b5b6123178882890161216c565b9150509295509295909350565b600067ffffffffffffffff82111561233f5761233e611def565b5b602082029050602081019050919050565b600061236361235e84612324565b611e4f565b905080838252602082019050602084028301858111156123865761238561205d565b5b835b818110156123af578061239b8882611c64565b845260208401935050602081019050612388565b5050509392505050565b600082601f8301126123ce576123cd611dd4565b5b81356123de848260208601612350565b91505092915050565b600080604083850312156123fe576123fd611c11565b5b600083013567ffffffffffffffff81111561241c5761241b611c16565b5b612428858286016123b9565b925050602083013567ffffffffffffffff81111561244957612448611c16565b5b612455858286016120cb565b9150509250929050565b600081519050919050565b600082825260208201905092915050565b6000819050602082019050919050565b61249481611c79565b82525050565b60006124a6838361248b565b60208301905092915050565b6000602082019050919050565b60006124ca8261245f565b6124d4818561246a565b93506124df8361247b565b8060005b838110156125105781516124f7888261249a565b9750612502836124b2565b9250506001810190506124e3565b5085935050505092915050565b6000602082019050818103600083015261253781846124bf565b905092915050565b6000806000806080858703121561255957612558611c11565b5b600061256787828801611c64565b945050602061257887828801611c9a565b935050604061258987828801611c9a565b925050606085013567ffffffffffffffff8111156125aa576125a9611c16565b5b6125b68782880161216c565b91505092959194509250565b6125cb81611c3b565b82525050565b60006020820190506125e660008301846125c2565b92915050565b6125f581611d9e565b811461260057600080fd5b50565b600081359050612612816125ec565b92915050565b6000806040838503121561262f5761262e611c11565b5b600061263d85828601611c64565b925050602061264e85828601612603565b9150509250929050565b6000806040838503121561266f5761266e611c11565b5b600061267d85828601611c64565b925050602061268e85828601611c64565b9150509250929050565b600080600080600060a086880312156126b4576126b3611c11565b5b60006126c288828901611c64565b95505060206126d388828901611c64565b94505060406126e488828901611c9a565b93505060606126f588828901611c9a565b925050608086013567ffffffffffffffff81111561271657612715611c16565b5b6127228882890161216c565b9150509295509295909350565b60006020828403121561274557612744611c11565b5b600061275384828501611c64565b91505092915050565b7f455243313135353a2061646472657373207a65726f206973206e6f742061207660008201527f616c6964206f776e657200000000000000000000000000000000000000000000602082015250565b60006127b8602a83611f6e565b91506127c38261275c565b604082019050919050565b600060208201905081810360008301526127e7816127ab565b9050919050565b7f4e487b7100000000000000000000000000000000000000000000000000000000600052602260045260246000fd5b6000600282049050600182168061283557607f821691505b602082108103612848576128476127ee565b5b50919050565b7f455243313135353a2063616c6c6572206973206e6f7420746f6b656e206f776e60008201527f6572206f7220617070726f766564000000000000000000000000000000000000602082015250565b60006128aa602e83611f6e565b91506128b58261284e565b604082019050919050565b600060208201905081810360008301526128d98161289d565b9050919050565b7f455243313135353a206163636f756e747320616e6420696473206c656e67746860008201527f206d69736d617463680000000000000000000000000000000000000000000000602082015250565b600061293c602983611f6e565b9150612947826128e0565b604082019050919050565b6000602082019050818103600083015261296b8161292f565b9050919050565b7f4e487b7100000000000000000000000000000000000000000000000000000000600052603260045260246000fd5b7f4e487b7100000000000000000000000000000000000000000000000000000000600052601160045260246000fd5b60006129db82611c79565b91507fffffffffffffffffffffffffffffffffffffffffffffffffffffffffffffffff8203612a0d57612a0c6129a1565b5b600182019050919050565b7f4f776e61626c653a206e6577206f776e657220697320746865207a65726f206160008201527f6464726573730000000000000000000000000000000000000000000000000000602082015250565b6000612a74602683611f6e565b9150612a7f82612a18565b604082019050919050565b60006020820190508181036000830152612aa381612a67565b9050919050565b7f4f776e61626c653a2063616c6c6572206973206e6f7420746865206f776e6572600082015250565b6000612ae0602083611f6e565b9150612aeb82612aaa565b602082019050919050565b60006020820190508181036000830152612b0f81612ad3565b9050919050565b60008190508160005260206000209050919050565b60006020601f8301049050919050565b600082821b905092915050565b600060088302612b787fffffffffffffffffffffffffffffffffffffffffffffffffffffffffffffffff82612b3b565b612b828683612b3b565b95508019841693508086168417925050509392505050565b6000819050919050565b6000612bbf612bba612bb584611c79565b612b9a565b611c79565b9050919050565b6000819050919050565b612bd983612ba4565b612bed612be582612bc6565b848454612b48565b825550505050565b600090565b612c02612bf5565b612c0d818484612bd0565b505050565b5b81811015612c3157612c26600082612bfa565b600181019050612c13565b5050565b601f821115612c7657612c4781612b16565b612c5084612b2b565b81016020851015612c5f578190505b612c73612c6b85612b2b565b830182612c12565b50505b505050565b600082821c905092915050565b6000612c9960001984600802612c7b565b1980831691505092915050565b6000612cb28383612c88565b9150826002028217905092915050565b612ccb82611f63565b67ffffffffffffffff811115612ce457612ce3611def565b5b612cee825461281d565b612cf9828285612c35565b600060209050601f831160018114612d2c5760008415612d1a578287015190505b612d248582612ca6565b865550612d8c565b601f198416612d3a86612b16565b60005b82811015612d6257848901518255600182019150602085019450602081019050612d3d565b86831015612d7f5784890151612d7b601f891682612c88565b8355505b6001600288020188555050505b505050505050565b7f455243313135353a206d696e7420746f20746865207a65726f2061646472657360008201527f7300000000000000000000000000000000000000000000000000000000000000602082015250565b6000612df0602183611f6e565b9150612dfb82612d94565b604082019050919050565b60006020820190508181036000830152612e1f81612de3565b9050919050565b7f455243313135353a2069647320616e6420616d6f756e7473206c656e6774682060008201527f6d69736d61746368000000000000000000000000000000000000000000000000602082015250565b6000612e82602883611f6e565b9150612e8d82612e26565b604082019050919050565b60006020820190508181036000830152612eb181612e75565b9050919050565b6000612ec382611c79565b9150612ece83611c79565b9250828201905080821115612ee657612ee56129a1565b5b92915050565b60006040820190508181036000830152612f0681856124bf565b90508181036020830152612f1a81846124bf565b90509392505050565b7f455243313135353a207472616e7366657220746f20746865207a65726f20616460008201527f6472657373000000000000000000000000000000000000000000000000000000602082015250565b6000612f7f602583611f6e565b9150612f8a82612f23565b604082019050919050565b60006020820190508181036000830152612fae81612f72565b9050919050565b7f455243313135353a20696e73756666696369656e742062616c616e636520666f60008201527f72207472616e7366657200000000000000000000000000000000000000000000602082015250565b6000613011602a83611f6e565b915061301c82612fb5565b604082019050919050565b6000602082019050818103600083015261304081613004565b9050919050565b600060408201905061305c6000830185611cef565b6130696020830184611cef565b9392505050565b7f455243313135353a2073657474696e6720617070726f76616c2073746174757360008201527f20666f722073656c660000000000000000000000000000000000000000000000602082015250565b60006130cc602983611f6e565b91506130d782613070565b604082019050919050565b600060208201905081810360008301526130fb816130bf565b9050919050565b600081519050919050565b600082825260208201905092915050565b600061312982613102565b613133818561310d565b9350613143818560208601611f7f565b61314c81611dde565b840191505092915050565b600060a08201905061316c60008301886125c2565b61317960208301876125c2565b818103604083015261318b81866124bf565b9050818103606083015261319f81856124bf565b905081810360808301526131b3818461311e565b90509695505050505050565b6000815190506131ce81611d45565b92915050565b6000602082840312156131ea576131e9611c11565b5b60006131f8848285016131bf565b91505092915050565b60008160e01c9050919050565b600060033d111561322d5760046000803e61322a600051613201565b90505b90565b600060443d106132bd57613242611c07565b60043d036004823e80513d602482011167ffffffffffffffff8211171561326a5750506132bd565b808201805167ffffffffffffffff81111561328857505050506132bd565b80602083010160043d0385018111156132a55750505050506132bd565b6132b482602001850186611e1e565b82955050505050505b90565b7f455243313135353a207472616e7366657220746f206e6f6e2d4552433131353560008201527f526563656976657220696d706c656d656e746572000000000000000000000000602082015250565b600061331c603483611f6e565b9150613327826132c0565b604082019050919050565b6000602082019050818103600083015261334b8161330f565b9050919050565b7f455243313135353a204552433131353552656365697665722072656a6563746560008201527f6420746f6b656e73000000000000000000000000000000000000000000000000602082015250565b60006133ae602883611f6e565b91506133b982613352565b604082019050919050565b600060208201905081810360008301526133dd816133a1565b9050919050565b600060a0820190506133f960008301886125c2565b61340660208301876125c2565b6134136040830186611cef565b6134206060830185611cef565b8181036080830152613432818461311e565b9050969550505050505056fea2646970667358221220e6918b9226f6fb21d67dd94626439345f03ab52de6b2f38017a2f08d10eb402564736f6c63430008120033",
  "linkReferences": {},
  "deployedLinkReferences": {}
}